:020000040800F2
:100000002008002089010008E5010008E50100083A
:10001000E5010008E5010008E50100080000000016
:10002000000000000000000000000000E5010008E2
:10003000E501000800000000E5010008E5010008F6
:10004000E5010008E5010008E5010008E5010008F8
:10005000E5010008E5010008E5010008E5010008E8
:10006000E5010008E5010008E5010008E5010008D8
:10007000E5010008E5010008E5010008E5010008C8
:10008000E5010008E5010008E5010008E5010008B8
:10009000E5010008E5010008E5010008E5010008A8
:1000A000E5010008E5010008E5010008E501000898
:1000B000E5010008E5010008E5010008E501000888
:1000C000E5010008E5010008E5010008E501000878
:1000D000E5010008E5010008E5010008E501000868
:1000E000E5010008E5010008E5010008E501000858
:1000F000E5010008E5010008E5010008E501000848
:10010000E5010008E5010008E5010008E501000837
:10011000E5010008E5010008E5010008E501000827
:10012000E5010008E5010008E5010008E501000817
:10013000E5010008E5010008E5010008E501000807
:10014000E5010008E5010008E5010008E5010008F7
:10015000E5010008E5010008E5010008E5010008E7
:10016000E5010008E5010008E5010008E5010008D7
:10017000E5010008E5010008E5010008E5010008C7
:10018000E5010008E501000880B582B000AF104B22
:100190007B60104B3B6007E03B681A1D3A607A6851
:1001A000111D796012681A603A680B4B9A42F3D3BA
:1001B0000A480B494FF000028842B8BF40F8042BB0
:1001C000FFF6FAAF00F012F80837BD4680BD00BF59
:1001D000A4110008000000202000002020000020C2
:1001E0002000002080B400AFFEE700BF80B582B0E1
:1001F00000AF00F093FC00F05DFC7860786800F0E0
:1002000001F8F8E780B584B000AF786078684FF007
:100210007E5100F097FF0346002B0CD00023FB73A8
:1002200006E0FB7B184600F02DFCFB7B0133FB73E3
:10023000FB7B072BF5D978689A4900F083FF0346CA
:10024000002B21D078684FF07E5100F08FFF0346DD
:10025000002B19D00023FB7306E0FB7B184600F04F
:10026000F9FBFB7B0133FB73FB7B002BF5D00123F8
:10027000FB7306E0FB7B184600F004FCFB7B0133BC
:10028000FB73FB7B072BF5D97868864900F06EFF7E
:100290000346002B20D07868834900F053FF0346C3
:1002A000002B19D00023FB7306E0FB7B184600F0FF
:1002B000D1FBFB7B0133FB73FB7B012BF5D90223C5
:1002C000FB7306E0FB7B184600F0DCFBFB7B013395
:1002D000FB73FB7B072BF5D97868734900F046FF69
:1002E0000346002B20D07868704900F02BFF0346AE
:1002F000002B19D00023FB7306E0FB7B184600F0AF
:10030000A9FBFB7B0133FB73FB7B022BF5D903239A
:10031000FB7306E0FB7B184600F0B4FBFB7B01336C
:10032000FB73FB7B072BF5D97868604900F01EFF53
:100330000346002B20D078685D4900F003FF034698
:10034000002B19D00023FB7306E0FB7B184600F05E
:1003500081FBFB7B0133FB73FB7B032BF5D9042370
:10036000FB7306E0FB7B184600F08CFBFB7B013344
:10037000FB73FB7B072BF5D978684D4900F0F6FE3F
:100380000346002B20D078684A4900F0DBFE034684
:10039000002B19D00023FB7306E0FB7B184600F00E
:1003A00059FBFB7B0133FB73FB7B042BF5D9052346
:1003B000FB7306E0FB7B184600F064FBFB7B01331C
:1003C000FB73FB7B072BF5D978683A4900F0CEFE2A
:1003D0000346002B20D07868374900F0B3FE03466F
:1003E000002B19D00023FB7306E0FB7B184600F0BE
:1003F00031FBFB7B0133FB73FB7B052BF5D906231C
:10040000FB7306E0FB7B184600F03CFBFB7B0133F3
:10041000FB73FB7B072BF5D97868274900F0A6FE14
:100420000346002B20D07868244900F08BFE034659
:10043000002B19D00023FB7306E0FB7B184600F06D
:1004400009FBFB7B0133FB73FB7B062BF5D90723F1
:10045000FB7306E0FB7B184600F014FBFB7B0133CB
:10046000FB73FB7B072BF5D97868144900F07EFEFF
:100470000346002B13D07868114900F06DFE034647
:10048000002B0CD00023FB7306E0FB7B184600F02A
:10049000E1FAFB7B0133FB73FB7B072BF5D91037AC
:1004A000BD4680BD000050410000D04100001C420C
:1004B000000050420000824200009C420000B64210
:1004C0000000C84280B483B000AF78600B46FB7078
:1004D000FB78002B06D0094B084A116B7A680A4357
:1004E0001A6306E0054B054A116B7A68D2430A404D
:1004F0001A630C37BD465DF8047B70470038024034
:1005000080B483B000AF78600B46FB70FB78002BA3
:1005100006D0094B084A516C7A680A435A6406E0CF
:10052000054B054A516C7A68D2430A405A640C372D
:10053000BD465DF8047B70470038024080B485B04A
:1005400000AF786039600023FB600023FB727B689A
:100550005B68FB60FB6823F0407323F48073FB60EF
:100560003B681B791A023B681B681343FA68134304
:10057000FB607B68FA685A607B689B68FB60FA687E
:10058000174B1340FB603B681A693B68DB681A43F2
:100590003B689B681A433B685B795B001343FA68CE
:1005A0001343FB607B68FA689A607B68DB6AFB60D8
:1005B000FB6823F47003FB603B681B7D013BDAB2F0
:1005C000FB7A1343FB72FB7A1B05FA681343FB604B
:1005D0007B68FA68DA621437BD465DF8047B7047C1
:1005E000FDF7FFC080B483B000AF78607B68002265
:1005F0001A607B6800221A717B6800225A717B683E
:1006000000229A607B680022DA607B6800221A610F
:100610007B6801221A750C37BD465DF8047B704774
:1006200080B485B000AF78600023FB600E4B5B6840
:10063000FB60FA680D4B1340FB607B681A687B68AF
:100640005B681A437B689B681A437B68DB681343CB
:10065000FA681343FB60044BFA685A601437BD46CE
:100660005DF8047B704700BF00230140E030FCFFD1
:1006700080B483B000AF78607B6800221A607B682A
:1006800000225A607B6800229A607B680022DA6050
:100690000C37BD465DF8047B704700BF80B483B063
:1006A00000AF78600B46FB70FB78002B06D07B68B0
:1006B0009B6843F001027B689A6005E07B689B6859
:1006C00023F001027B689A600C37BD465DF8047B1D
:1006D000704700BF80B485B000AF7860F970BA7021
:1006E0007B700023FB600023BB60FB78092B23D9C0
:1006F0007B68DB68FB60FB78A3F10A0213465B00B2
:100700001344072202FA03F3BB60BB68DB43FA68B9
:100710001340FB607978FB78A3F10A0213465B0073
:10072000134401FA03F3BB60FA68BB681343FB6030
:100730007B68FA68DA601EE07B681B69FB60FA7808
:1007400013465B001344072202FA03F3BB60BB6845
:10075000DB43FA681340FB607978FA7813465B0054
:10076000134401FA03F3BB60FA68BB681343FB60F0
:100770007B68FA681A61BB78062B21D87B685B6BB3
:10078000FB60BB785A1E13469B0013441F2202FADB
:1007900003F3BB60BB68DB43FA681340FB60F97886
:1007A000BB785A1E13469B00134401FA03F3BB6047
:1007B000FA68BB681343FB607B68FA685A6347E0DA
:1007C000BB780C2B21D87B681B6BFB60BB78DA1FD6
:1007D00013469B0013441F2202FA03F3BB60BB685D
:1007E000DB43FA681340FB60F978BB78DA1F1346E5
:1007F0009B00134401FA03F3BB60FA68BB68134320
:10080000FB607B68FA681A6322E07B68DB6AFB6046
:10081000BB78A3F10D0213469B0013441F2202FA7A
:1008200003F3BB60BB68DB43FA681340FB60F978F5
:10083000BB78A3F10D0213469B00134401FA03F3A6
:10084000BB60FA68BB681343FB607B68FA68DA62D6
:100850001437BD465DF8047B704700BF80B483B099
:1008600000AF78607B689B6843F080427B689A6049
:100870000C37BD465DF8047B704700BF80B483B081
:1008800000AF78607B68DB6C9BB218460C37BD46C6
:100890005DF8047B704700BF80B485B000AF78601E
:1008A0000B46FB700023FB737B681A68FB781340D0
:1008B000002B02D00123FB7301E00023FB73FB7BC1
:1008C00018461437BD465DF8047B704780B487B086
:1008D00000AF7860396000237B6100233B61002317
:1008E000FB6000237B6176E07B69012202FA03F35F
:1008F0003B613B681A683B691340FB60FA683B69DF
:100900009A4265D17B681A687B695B00032101FA12
:1009100003F3DB431A407B681A607B681A683B6804
:100920001B7919467B695B0001FA03F31A437B6864
:100930001A603B681B79012B03D03B681B79022BA3
:100940002ED17B689A687B695B00032101FA03F36F
:10095000DB431A407B689A607B689A683B685B79E6
:1009600019467B695B0001FA03F31A437B689A60BE
:100970007B685A687B699BB2012101FA03F3DB4370
:100980001A407B685A607B685A683B689B791946B5
:100990007B699BB201FA03F39BB21A437B685A60EE
:1009A0007B68DA687B699BB25B00032101FA03F381
:1009B000DB431A407B68DA607B68DA683B68DB7986
:1009C00019467B695B0001FA03F31A437B68DA601E
:1009D0007B6901337B617B690F2B85D91C37BD4651
:1009E0005DF8047B704700BF80B483B000AF7860CF
:1009F0007B684FF6FF721A607B6800221A717B6871
:100A000000225A717B6800229A717B680022DA7199
:100A10000C37BD465DF8047B704700BF80B483B0DF
:100A200000AF78600B467B807B687A881A830C372E
:100A3000BD465DF8047B704780B483B000AF78603A
:100A40000B467B807B687A885A830C37BD465DF8FD
:100A5000047B704780B582B000AF0346FB71FA7922
:100A6000064B53F82220F979054B33F81130104624
:100A70001946FFF7D3FF0837BD4680BD00000020B0
:100A80009411000880B582B000AF0346FB71FA797B
:100A9000064B53F82220F979054B33F811301046F4
:100AA0001946FFF7C9FF0837BD4680BD000000208A
:100AB0009411000880B582B000AF15480C210122C6
:100AC0000123FFF707FE1248FFF7C8FE00BF1048DA
:100AD0000221FFF7E1FE0346012BF8D10C48FFF796
:100AE000CDFE0346FB80FB88184600F035F903462F
:100AF0001846084900F088F903461846064900F0F0
:100B000037FA03463B603B6818460837BD4680BD50
:100B1000002001400000C84200F07F4580B500AFD2
:100B200000F004F800F022F880BD00BF80B582B06C
:100B300000AF08200121FFF7C5FC0F233B603B6895
:100B400043F44C633B6001233B7102237B71002320
:100B5000BB710023FB713B4603481946FFF7B6FE05
:100B60000837BD4680BD00BF000C024080B58CB088
:100B700000AF4FF480700121FFF7C2FC0420012177
:100B8000FFF7A0FC07F128031846FFF72DFF042309
:100B9000BB62032387F82C3007F12803114819465C
:100BA000FFF794FE07F118031846FFF761FD4FF4B5
:100BB0008033FB6107F118031846FFF731FD3B4610
:100BC0001846FFF70FFD00233B603B4606481946D9
:100BD000FFF7B4FC04480121FFF760FD3037BD4644
:100BE00080BD00BF000802400020014080F00040AE
:100BF00002E000BF81F0004142001FBF5FEA4103F5
:100C000092EA030F7FEA226C7FEA236C6AD04FEAF4
:100C10001262D2EB1363C1BFD21841404840414039
:100C2000B8BF5B42192B88BF704710F0004F40F4EB
:100C3000000020F07F4018BF404211F0004F41F407
:100C4000000121F07F4118BF494292EA030F3FD0D3
:100C5000A2F1010241FA03FC10EB0C00C3F12003E6
:100C600001FA03F100F0004302D5494260EB400075
:100C7000B0F5000F13D3B0F1807F06D340084FEAE0
:100C8000310102F10102FE2A51D2B1F1004F40EBD5
:100C9000C25008BF20F0010040EA0300704749003D
:100CA00040EB000010F4000FA2F10102EDD1B0FA08
:100CB00080FCACF1080CB2EB0C0200FA0CF0AABFFD
:100CC00000EBC25052421843BCBFD040184370479B
:100CD00092F0000F81F4000106BF80F400000132A1
:100CE000013BB5E74FEA41037FEA226C18BF7FEA78
:100CF000236C21D092EA030F04D092F0000F08BFBA
:100D00000846704790EA010F1CBF0020704712F0A0
:100D10007F4F04D1400028BF40F00040704712F1DF
:100D200000723CBF00F50000704700F0004343F044
:100D3000FE4040F4000070477FEA226216BF08467A
:100D40007FEA23630146420206BF5FEA412390EA3D
:100D5000010F40F4800070474FF0000304E000BF33
:100D600010F0004348BF40425FEA000C08BF7047E4
:100D700043F0964301464FF000001CE050EA0102A8
:100D800008BF70474FF000030AE000BF50EA0102BD
:100D900008BF704711F0004302D5404261EB4101AA
:100DA0005FEA010C02BF84460146002043F0B643CF
:100DB00008BFA3F18053A3F50003BCFA8CF2083AF4
:100DC000A3EBC25310DB01FA02FC634400FA02FCFD
:100DD000C2F12002BCF1004F20FA02F243EB020004
:100DE00008BF20F00100704702F1200201FA02FC66
:100DF000C2F1200250EA4C0021FA02F243EB020059
:100E000008BF20EADC7070474FF0FF0C1CEAD0529C
:100E10001EBF1CEAD15392EA0C0F93EA0C0F6FD05D
:100E20001A4480EA010C400218BF5FEA41211ED03B
:100E30004FF0006343EA501043EA5111A0FB013127
:100E40000CF00040B1F5000F3EBF490041EAD371FC
:100E50005B0040EA010062F17F02FD2A1DD8B3F178
:100E6000004F40EBC25008BF20F00100704790F0E7
:100E7000000F0CF0004C08BF49024CEA502040EA39
:100E800051207F3AC2BFD2F1FF0340EAC2507047FF
:100E900040F400004FF00003013A5DDC12F1190F3D
:100EA000DCBF00F000407047C2F10002410021FAAF
:100EB00002F1C2F1200200FA02FC5FEA310040F1C7
:100EC000000053EA4C0308BF20EADC70704792F040
:100ED000000F00F0004C02BF400010F4000F013A78
:100EE000F9D040EA0C0093F0000F01F0004C02BF73
:100EF000490011F4000F013BF9D041EA0C018FE7E2
:100F00000CEAD15392EA0C0F18BF93EA0C0F0AD0E7
:100F100030F0004C18BF31F0004CD8D180EA01000D
:100F200000F00040704790F0000F17BF90F0004FA6
:100F3000084691F0000F91F0004F14D092EA0C0F88
:100F400001D142020FD193EA0C0F03D14B0218BF1B
:100F5000084608D180EA010000F0004040F0FE4061
:100F600040F40000704740F0FE4040F440007047FD
:100F70004FF0FF0C1CEAD0521EBF1CEAD15392EA7C
:100F80000C0F93EA0C0F69D0A2EB030280EA010C6C
:100F900049024FEA402037D04FF0805343EA111105
:100FA00043EA10130CF000408B4238BF5B0042F163
:100FB0007D024FF4000C8B4224BF5B1A40EA0C0008
:100FC000B3EB510F24BFA3EB510340EA5C00B3EB3A
:100FD000910F24BFA3EB910340EA9C00B3EBD10F28
:100FE00024BFA3EBD10340EADC001B0118BF5FEA7A
:100FF0001C1CE0D1FD2A3FF650AF8B4240EBC250A3
:1010000008BF20F0010070470CF0004C4CEA502063
:101010007F32C2BFD2F1FF0340EAC250704740F4B2
:1010200000004FF00003013A37E792F0000F00F0A4
:10103000004C02BF400010F4000F013AF9D040EA22
:101040000C0093F0000F01F0004C02BF490011F4B6
:10105000000F013BF9D041EA0C0195E70CEAD153AE
:1010600092EA0C0F08D142027FF47DAF93EA0C0F95
:101070007FF470AF084676E793EA0C0F04D14B0279
:101080003FF44CAF08466EE730F0004C18BF31F02B
:10109000004CCAD130F000427FF45CAF31F0004325
:1010A0007FF43CAF5FE700BF4FF0FF3C06E000BFBE
:1010B0004FF0010C02E000BF4FF0010C4DF804CDE1
:1010C0004FEA40024FEA41037FEA226C18BF7FEAF1
:1010D000236C11D001B052EA530C18BF90EA010FF3
:1010E00058BFB2EB030088BFC81738BF6FEAE17082
:1010F00018BF40F0010070477FEA226C02D15FEA1E
:10110000402C05D17FEA236CE4D15FEA412CE1D089
:101110005DF8040B704700BF844608466146FFE750
:101120000FB5FFF7C9FF002848BF10F1000F0FBD32
:101130004DF808EDFFF7F4FF0CBF012000205DF82B
:1011400008FB00BF4DF808EDFFF7EAFF34BF0120B0
:1011500000205DF808FB00BF4DF808EDFFF7E0FF49
:1011600094BF012000205DF808FB00BF4DF808ED9A
:10117000FFF7D2FF94BF012000205DF808FB00BFFD
:101180004DF808EDFFF7C8FF34BF012000205DF8DF
:1011900008FB00BF010002000400080040008000BE
:0411A000000400083F
:1011A400000C0240000C0240000C0240000C024003
:1011B400000C0240000C0240000C0240000C0240F3
:0400000508000000EF
:00000001FF
